:100000000C9446000C945D000C945D000C945D0013
:100010000C945D000C945D000C945D000C945D00EC
:100020000C945D000C945D000C945D000C945D00DC
:100030000C945D000C945D000C945D000C945D00CC
:100040000C945D000C945D000C945D000C945D00BC
:100050000C945D000C945D000C945D000C945D00AC
:100060000C945D000C945D000C945D000C945D009C
:100070000C945D000C945D000C945D000C945D008C
:100080000C945D000C945D000C945D0011241FBE67
:10009000CFEFD0E4DEBFCDBF11E0A0E0B1E0EEEEE7
:1000A000F1E000E00BBF02C007900D92AE30B10747
:1000B000D9F70E9488000C94F5000C940000CF93AF
:1000C000DF9300D01F92CDB7DEB789837B836A832D
:1000D00089818A3031F48A819B81BC018DE00E9444
:1000E0005F0080EC90E0FC018081882F90E08072BE
:1000F0009927892BB1F386EC90E02981FC012083BC
:1001000080E090E00F900F900F90DF91CF910895D5
:10011000CF93DF9300D000D01F92CDB7DEB781E23E
:1001200090E0FC01108282E290E02FEFFC0120833E
:1001300084E290E0FC01108285E290E02FEFFC0168
:10014000208387E290E0FC01108288E290E02FEFAC
:10015000FC0120838AE290E02FEFFC0120838BE2F8
:1001600090E0FC0110821A821B821C8219821D827F
:1001700080E290E0FC0180818A8383E290E0FC01D0
:1001800080818B8386E290E0FC0180818C839A8160
:100190008B81980F8C81890F8D838D8186958695B3
:1001A000898389818C7F89838D818D3818F089813D
:1001B000816089838A81282F30E08C81882F90E0AC
:1001C000A901481B590BCA0199231CF491958195EB
:1001D0009109813591051CF08981826089838BE2C8
:0E01E00090E02981FC012083C3CFF894FFCF6B
:0E01EE0000000002000000005F0000000000A2
:00000001FF
