:100000000C9446000C945D000C945D000C945D0013
:100010000C945D000C945D000C945D000C945D00EC
:100020000C945D000C945D000C945D000C945D00DC
:100030000C945D000C945D000C945D000C945D00CC
:100040000C945D000C945D000C945D000C945D00BC
:100050000C945D000C945D000C945D000C945D00AC
:100060000C945D000C945D000C945D000C945D009C
:100070000C945D000C945D000C945D000C945D008C
:100080000C945D000C945D000C945D0011241FBE67
:10009000CFEFD0E4DEBFCDBF11E0A0E0B1E0E8EEED
:1000A000F1E000E00BBF02C007900D92AE30B10747
:1000B000D9F70E9488000C94F2000C940000CF93B2
:1000C000DF9300D01F92CDB7DEB789837B836A832D
:1000D00089818A3031F48A819B81BC018DE00E9444
:1000E0005F0080EC90E0FC018081882F90E08072BE
:1000F0009927892BB1F386EC90E02981FC012083BC
:1001000080E090E00F900F900F90DF91CF910895D5
:10011000CF93DF9300D000D000D0CDB7DEB781E21F
:1001200090E0FC01108282E290E02FEFFC0120833E
:1001300084E290E0FC01108285E290E02FEFFC0168
:10014000208387E290E0FC01108288E290E02FEFAC
:10015000FC0120838AE290E02FEFFC0120838BE2F8
:1001600090E0FC01108280E290E0FC0180818B83B2
:1001700083E290E0FC0180818C8386E290E0FC01C8
:1001800080818D8319829B818C81980F8D81890F4D
:100190008E838E818D3818F08981816089839B815F
:1001A0008D81891738F49B818D81F92FF81B8F2F52
:1001B0008A8306C09D818B81292F281B822F8A83E9
:1001C0008A81813518F08981826089838E81869544
:1001D00086958E838BE290E039812E81232BFC0162
:0801E0002083C1CFF894FFCF8A
:0E01E80000000002000000005F0000000000A8
:00000001FF
